:020000040020DA
:10400000F87F00201D412000E9622000E9622000C5
:10401000E9622000E9622000E9622000E9622000F4
:10402000E9622000E9622000E96220001B632000B1
:10403000E9622000E9622000E9622000E9622000D4
:10404000E9622000E9622000E9622000E9622000C4
:10405000E9622000E9622000E9622000E9622000B4
:10406000E9622000E9622000E9622000E9622000A4
:10407000E9622000E9622000E9622000E962200094
:10408000E9622000E9622000E9622000E962200084
:10409000E9622000E9622000E9622000E962200074
:1040A000E9622000E9622000E9622000E962200064
:1040B000E9622000E9622000E9622000E962200054
:1040C000E9622000E9622000E9622000E962200044
:1040D000E9622000E9622000E9622000E962200034
:1040E000E9622000E9622000E9622000E962200024
:1040F000E9622000E962200010B5074C54F8043C46
:10410000B3F1FF3F06D0043C984754F8043DB3F1A7
:0C411000FF3FF9D110BD00BF286C20005B
:10411C0040400949094A086004319142FBDBFFF732
:10412C00E5FF00BF00F0B2F900F0F0F901B402F0C5
:10413C007DFC00F03DFD000004000020E8020020A2
:10414C00F0B5CB6881B004460D461746002B2DD038
:10415C0023602B68002623616B68666123622A69E1
:10416C00A661E4616662A66205F10801204601F0D1
:10417C0019FC2B69A2686660D218A2F140034FF0BB
:10418C00807142F8401C0B4A01A942F001029A636B
:10419C0047F00102DA63204641F8047DE36069468A
:1041AC004FF4406201F07AFE01B0F0BD024B1B6887
:1041BC00CEE700BFB14B200084010020294B30B565
:1041CC00186844682246002C47D063683F2B07D8F8
:1041DC00302B11D0D268002A3FD053683F2BF7D92F
:1041EC00303B5360C1683039C16053B11268302123
:1041FC00D018D150043030BD00235360C168303921
:10420C00C160016801290BD0956875B1D468BCB147
:10421C00EC60D2F80CC00139CCF808500160E5E72D
:10422C000021416081600160E0E70029DED0D4F814
:10423C000CC00139C0F804C00160CCF80850D5E7B7
:10424C000029D3D0D0F808C00139DCF808C00160CF
:10425C00C0F808C0CCF80C40C8E700F009FD0020FD
:10426C00C9E700BF58000020F0B58CB000240A94B8
:10427C000A9B4FF4406701930094029403940497B3
:10428C00FFF79CFF44F23012C0F22002694605464B
:10429C00FFF756FF6FF000430B930B9B0126069321
:1042AC000596079408940997FFF788FF45F64D4249
:1042BC00C0F2200205A9FFF743FF40F2A813C2F297
:1042CC0000031E70E86802F067FA0CB0F0BD00BF86
:1042DC002DE9F0076B4E7368002B76D059680029D6
:1042EC0073D0DFF8A481B24600270022D8F8005022
:1042FC005A60F268521AF2605A68BAB9DAF8004099
:10430C00012C76D09868002800F09B80D3F80CC064
:10431C00BCF1000F00F0A580C0F80CC0DA6890600A
:10432C00DAF80020013ACAF800205A681C68A41870
:10433C0049D00F2947D961602460A760E760EB681A
:10434C0059186B68E960D4F800C06068002B40D045
:10435C00D3F80090604448450CBF1A461A4604D066
:10436C00D26812B111688842FAD159688944CC4597
:10437C0007D0DB68002B2BD01868596841188C4586
:10438C00F7D119461346CBB160685A68821862603F
:10439C002868012802BF6F60AF602F600ED09A684A
:1043AC00002A2ED0D3F80CC0BCF1000F33D0C2F8C9
:1043BC000CC0DB689A602B68013B2B6019B14A6812
:1043CC006368D3184B60736873B9BDE8F007704726
:1043DC0013462968002929D1A160E1602A686C6024
:1043EC000132AC602A60CEE7596800297FF47DAFBA
:1043FC00EBE7CAF80420CAF80820CAF800205A686B
:10440C0094E70028DAD06B68DB686B609A602B68E5
:10441C00013B2B60D2E70028D0D0AB689B68AB6027
:10442C00C3F80CC02B68013B2B60C7E7AA68394660
:10443C00D460AA68E760A2602A68AC6001322A6086
:10444C00A1E7002C3FF472AFDAF80400C068CAF898
:10445C0004008260DAF80020013ACAF800205A6899
:10446C0064E7002C3FF462AFDAF808008068CAF801
:10447C000800C260DAF80020013ACAF800205A6835
:10448C0054E700BFD802002058000020704700BF3E
:10449C0040F21803C2F200030A204FF0FF31002251
:1044AC00596018601A7240F20C03C2F20003596092
:1044BC0018601A72704700BF3F29C0B205D900219D
:1044CC00002818BF8020084370474900F8E700BF58
:1044DC000368D86803F10C0210F0020F0EBF03F151
:1044EC00080003F108009960136813F0040FFBD067
:1044FC000068704740F22403C2F200030A221A60DB
:10450C004FF0FF325A6000221A72704749F20403CE
:10451C00C4F200031A68092022F002021A6042F267
:10452C001802C4F20D0211682DE9F04F41F002019E
:10453C00116042F21C02C4F20D021168002441F019
:10454C000201116044F208020821C4F20D0211604C
:10455C0044F20C02C4F20D02106044F21402C4F2D4
:10456C000D020720106044F22012C4F20D02042048
:10457C00106049F6C872C4F200021C60146049F263
:10458C001002C4F200020220106049F20002C4F2D0
:10459C00000240F68770106044F28802C4F20D02EB
:1045AC00116044F28C02C4F20D02116044F29402C8
:1045BC00C4F20D02116049F22042C4F20D021068DF
:1045CC009CB040F03C00106018684FF00A0A40F0B4
:1045DC000200186042F22803C4F20D03186849F275
:1045EC00080640F00100186042F22C03C4F20D03DF
:1045FC001868DFF88C9240F00100186044F2040354
:10460C00C4F20D031C6044F28403C4F20D03196060
:10461C0044F28003C4F20D031C6044F20013C4F294
:10462C000D031C6013684FF0FF3143F0030313605C
:10463C004CF23003C4F200031A68112022F001027C
:10464C001A604CF24402C4F2000211604CF23802BF
:10465C004CF22401C4F20002C4F2000114600860A0
:10466C004CF22801C4F20001052008604CF22C0128
:10467C00C4F200016B300860302111601A68684484
:10468C0042F4407242F001021A604FF4FA7340F89F
:10469C00043D01F045F84CF21802FF210494C4F2D9
:1046AC00000249F20C04019105AD0392D346C4F209
:1046BC000004C4F20006039B1F6817F02007FAD110
:1046CC0004994CF20003C4F2000319606D4800F029
:1046DC0077FA3B4604992A46694800F0CDFA1CAAA1
:1046EC00131803F85C7C284600F06AFA664800F060
:1046FC0067FABAF13F0F236895BF4FEA4A073A466B
:10470C003A464FEA4A0713F0020FC9F800B018BF37
:10471C003260236813F0040FFBD033681AA84FF4EF
:10472C00FA731A9300F0FCFF49F20C02C4F2000277
:10473C00136813F0020F01D020233360236813F0A9
:10474C00040FFBD047F080074FF4FA7819A83368B0
:10475C00CDF8648000F0E4FF029700272368029AEA
:10476C00BAF13F0F88BF802213F0020F18BF3260DE
:10477C00236813F0040FFBD018A83368CDF86080C1
:10478C0000F0CEFF414800F01BFA01992A460023A5
:10479C003B4800F071FA1CAB1818002300F85C3C85
:1047AC002846009300F00CFA394800F009FA49F257
:1047BC000C01C4F200010A68009B12F0020F18BF32
:1047CC003360236813F0040FFBD0316800232A46B2
:1047DC002B4800F051FA1CAA1018002300F85C3C7E
:1047EC00284600F0EDF9284800F0EAF9013717A83F
:1047FC00C9F800B0CDF85C8000F092FF152FADD158
:10480C0016A8CDF8588000F08BFF03990AF1010728
:10481C000B68FFB2142F88BF0A2713F0100F0FD0AC
:10482C00049915A84B1CDBB2049348F2A063C0F2A8
:10483C000103159300F074FFCDF804A0BA463AE7D3
:10484C00144800F0BDF9039A136813F01008FBD15B
:10485C004CF20003C4F2000319682A46C9B243465D
:10486C00074800F009FA1CAA131803F85C8C2846B8
:10487C0000F0A6F9044800F0A3F9C9F800B0CFE79E
:10488C0024000020606A20006C6A2000706A2000FE
:10489C00786A20007C6A200030B500F033FAA94910
:1048AC004B68002B00F037815A6846F203008242B5
:1048BC0009D8B2F5C04F06D0DB68002B00F02B8175
:1048CC005A688242F5D9A2F5C0425A60CA689D481E
:1048DC00A2F5C042CA605A6892B90468012C00F073
:1048EC00D0809968002900F0FE80DD68002D00F072
:1048FC000681CD60DA6891600268013A02605A68FC
:10490C001968DFF844C200238C18CCF80030CCF8BE
:10491C000430CCF80830CCF80C3049D04FF4C040FF
:10492C008C506060A360E360DCF80C301B18CCF892
:10493C000C30DCF8043051F802E06068002B00F019
:10494C0088801D687044A8420CBF1A461A4604D0D1
:10495C00D26812B111688842FAD159686D18AE4507
:10496C0007D0DB68002B73D01868596841188E4546
:10497C00F7D119461346B3B160685A688218626061
:10498C00DCF80000012874D09A68002A7ED0DD681B
:10499C00002D00F08980D560DB689A60DCF800306F
:1049AC00013BCCF8003019B14A686368D3184B60EE
:1049BC00664BC3F800C000F0DDFA00F0AFFB644BAF
:1049CC0093E8300043F24803C4F20303186849F239
:1049DC000043C4F20D031A6822F001021A6044F27B
:1049EC008003C4F20D0301221A6047F20803B022BF
:1049FC00C4F20D031A6047F20002C4F20D021368F0
:104A0C0013F0800FFBD047F21003C4F20D03D3F860
:104A1C0000C047F20C03C4F20D031B68002144F6DE
:104A2C006D6203EB0C2CC4F2C6120B1803FB02F3E1
:104A3C0003F5405344F1000439334CF30B1CB3F130
:104A4C00FF3F28BF0133434A8CEA0303136030BD98
:104A5C001346DCF80010002935D1A160E160DCF8C8
:104A6C000020CCF804400132CCF80840CCF80020EF
:104A7C0081E70023CCF80430CCF80830CCF80030B7
:104A8C0091E74260826002605A6839E700288AD058
:104A9C00DCF80430DB68CCF804309A60DCF80030C9
:104AAC00013BCCF800307EE700283FF47CAFDCF80B
:104ABC0008309B68CCF80830DD60DCF80030013B36
:104ACC00CCF800306FE7DCF808200021D460DCF86B
:104ADC000820E160A260DCF80020CCF8084001322C
:104AEC00CCF8002047E7002C3FF40AAF4168C968B6
:104AFC0041608A600268013A02605A6800E7002C43
:104B0C003FF4FEAE816889688160CA600268013A30
:104B1C0002605A68F4E6104C012323720F4800F02F
:104B2C004FF80F4800F04CF8DFF81CC00A23236044
:104B3C000023CCF80030CCF80430CCF80830CCF89A
:104B4C000C3035E7D8020020480000205800002027
:104B5C00600000205C000020300000208C6A2000E7
:104B6C006C6A200000B500F0A5F940F2B0130022E9
:104B7C00C2F200031A6040F2AC13C2F200031A60D6
:104B8C0040F23C03C2F200030A204FF0FF3159609F
:104B9C0018601A7240F23003C2F2000359601860B8
:104BAC001A7200BD00B5004601F052FA00BD00BFFC
:104BBC0000B501F04DFA00BD00B501F001FC00BDDF
:104BCC002DE9F045002507467C5D1C4EAA46DFF812
:104BDC00708084B1092C29D00A2C18D03368204657
:104BEC000133336001F04CFC33684F2B05DC01358D
:104BFC007C5D002CEED1BDE8F0850D2001F040FC71
:104C0C000A2001F03DFC0135C6F800A0F0E70D20AC
:104C1C0001F036FC204601F033FCD8F80030C6F821
:104C2C0000A00133C8F800300135E1E7204601F05F
:104C3C0027FC3368013508333360D9E7AC01002019
:104C4C00B001002010B546F6A42040F23004012338
:104C5C00C2F20004C0F220002372FFF7B1FF46F647
:104C6C006C20C0F22000FFF7ABFF0A23236010BDBD
:104C7C0000B5FFF7A1FF00BD70B400293BD0B1F522
:104C8C00807F1BD9D0F800C0BCF1080F14BF0024E2
:104C9C000124BCF1100F08BF44F0010484B14FF0A3
:104CAC00300C02F803C0D0F800C00133BCF1100F77
:104CBC0006D14FF0780C02F803C00133D0F800C0D5
:104CCC000C465D1CB4FBFCF41E462B46002CF8D1A4
:104CDC000B4C9219B1FBFCF30CFB131C14F80C30AD
:104CEC0002F80139D0F800C0B1FBFCF10029F1D178
:104CFC00284670BC70473021D154581CF9E700BFCE
:104D0C00C06A200000B500F003F800F095F800BD73
:104D1C00DFF81CC147F2F832C2F20002CCEB0202FF
:104D2C0070B4002A4AD00023424DCCF800C0CCF815
:104D3C000420CCF80830CCF80C30EB686446D3185F
:104D4C00EB606B68002B3CD01E680CEB8200B04211
:104D5C000CBF1A461A4604D0D26812B111688842A8
:104D6C00FAD1596806EB8106B44208D0DB68002BF7
:104D7C0026D05868196801EB80018C42F6D119468F
:104D8C001346ABB1DCF804005A688218CCF8042046
:104D9C002C68284A012C23D09868002825D0DD687F
:104DAC00002D3AD0C560DB6898601368013B136036
:104DBC0021B14A68DCF80430D3184B6070BC7047E2
:104DCC0013462A681B48D2B90121CCF80820CCF82C
:104DDC000C200160C0F804C0C0F808C01146D0E730
:104DEC000023536093601360E2E7002CE0D053681B
:104DFC00DB68536098601368013B1360D8E78168E7
:104E0C000132C1F80CC08168CCF808100021CCF834
:104E1C000C10C0F808C00260B3E7002CC8D093682F
:104E2C009B689360DD601368013B1360C0E700BFB3
:104E3C00E8020020D802002043F20C03C4F2030362
:104E4C001A68122022F001021A6042F20802C4F21F
:104E5C000D02116841F00801116042F20C02C4F21B
:104E6C000D02116841F00801116043F200020021AB
:104E7C00C4F20302116043F20402C4F20302106094
:104E8C0043F22802C4F203024FF0FF30106043F2E9
:104E9C003802C4F20302116043F21802C4F2030296
:104EAC00116841F0010111601A6842F001021A60A8
:104EBC00704700BF4CF22043C4F20D031A6822F075
:104ECC00C0021A604CF20043C4F20D031A6822F0BF
:104EDC00C0021A6044F2F8030122C4F20D031A60F6
:104EEC0044F2FC03C4F20D031A6042F20002C4F255
:104EFC000D0211684FF6F873CFF6DC6301EA030379
:104F0C0043F4081342F204011360C4F20D010A6861
:104F1C0040F20003C0F2011302EA0303002BF6D1A6
:104F2C0042F20003C4F20D031A6822F4E0621A6024
:104F3C0042F20402C4F20D02136813F0806FFBD02E
:104F4C00704700BF4EF61453CEF200031A6842F0BD
:104F5C0001021A6042F29803C4F20D031A6842F07F
:104F6C0001021A604EF60853CEF200034FF4011200
:104F7C001A60704700B5FFF7E5FF00F0ABF900F0E1
:104F8C0003F800F085F800BD4EF210034EF2180243
:104F9C00CEF200030021CEF20002196011604EF235
:104FAC001402CEF200024FF4FA41116006221A608C
:104FBC0046F2594140F2B412C2F20002C0F2200192
:104FCC00D1631A6842F001021A60704740F26E0316
:104FDC000022C2F200031A7040F26D03C2F2000309
:104FEC001A7040F26803C2F200030221196040F209
:104FFC00C823C2F200031A6040F2D423C2F20003A9
:10500C0049F2380C1A60C4F2080C032349F2400030
:10501C0049F24C01CCF8003030B4C4F2080004243E
:10502C00C4F2080149F244030460C4F208030A60A4
:10503C001D6845F040051D601D6845F008051D60A4
:10504C001D6845F008051D602023CCF80040026067
:10505C000B6049F25003C4F208031A6842F0800254
:10506C001A601A6842F010021A6049F21C03C4F26A
:10507C00080301221A6049F22403C4F208031A60DF
:10508C0049F22C03C4F208031C6030BC704700BF0B
:10509C004BF22043C4F20D031A6800B522F004024F
:1050AC001A604BF20043C4F20D031A6842F004027A
:1050BC001A604BF21003C4F20D03FF221A6049F27E
:1050CC003C02C4F20802136843F001031360136836
:1050DC0043F002031360136813F0800FFBD049F206
:1050EC000403C4F208031A6822F001021A60FFF7E5
:1050FC006DFF074B01221A60064A074BC3F8F020DC
:10510C004EF20413CEF200034FF480521A6000BD2D
:10511C00680000202D662000B401002000B500F0CE
:10512C001FF900F001F800BD10B5324B186841684A
:10513C000B46002959D04A68272A07D8182A05D0C7
:10514C00DB68002B51D05A68272AF7D9183A5A60D5
:10515C00C268183AC2605A6892B9D0F800C0BCF163
:10516C00010F21D09C68002C26D0D96800292FD0A3
:10517C00E160DA680CF1FF3CC0F800C094605A683A
:10518C00196818208B1888500433012119721A4998
:10519C0000221A6019610A2218495A60086840B145
:1051AC00DA60174A136010BD0260426082605A6870
:1051BC00E6E70B605A68F3E7BCF1000FE0D0C96872
:1051CC000CF1FF3CC0F800C041608A605A68D7E718
:1051DC00BCF1000FD4D081680CF1FF3C8968C0F899
:1051EC0000C08160CA605A68CAE7FFF741FD00231E
:1051FC00CBE700BF58000020855D2000B4020020E2
:10520C008801002040F26003C2F200034DF804BD97
:10521C0093E806004FF0010B11EB0B014FF0000C63
:10522C0042EB0C0283E806005DF804BB704700BF3C
:10523C0049F21803C4F208031A6840F2BC23C2F204
:10524C000003196841EA02021A6049F20803C4F229
:10525C0008031A6840F2C023C2F20003196841EA3D
:10526C0002021A6049F21003C4F208031A6840F2F1
:10527C00C423C2F20003196841EA02021A607047A3
:10528C000368232B0DD0252B13D0272B19D0332BB0
:10529C0001BF43F22403C4F203034FF0FF321A6040
:1052AC00704740F22403C4F203034FF0FF321A603C
:1052BC00F6E741F22403C4F203034FF0FF321A6005
:1052CC00EEE742F22403C4F203034FF0FF321A60FC
:1052DC00E6E700BF72B64EF280134FF0FF32CEF20B
:1052EC0000031A604EF28413CEF200031A601549C3
:1052FC00154A0023CA500433B3F5807FFAD100233A
:10530C00DFF848C018464CF803000433B3F5807F2F
:10531C000E4AF8D10E4BC2F88C30C2F89430C2F859
:10532C009C30C2F8CC300B4BC2F8F0300A4B082240
:10533C00CB600A4BC1F8CC304EF20413CEF2000312
:10534C001A607047B40100207D63200070000020BB
:10535C008D5220003D52200081632000115220000C
:10536C0010B5314B186841680B46002957D04A6874
:10537C00272A07D8182A05D0DB68002B4FD05A688B
:10538C00272AF7D9183A5A60C268183AC2605A6884
:10539C0092B9D0F800C0BCF1010F1FD09C68002C52
:1053AC0024D0D96800292DD0E160DA680CF1FF3CDB
:1053BC00C0F800C094605A68196818208B1888507F
:1053CC0004331A490122196119491A605A601A7278
:1053DC00486840B1DA60174A136010BD0260426041
:1053EC0082605A68E8E74B605A68F3E7BCF1000F3B
:1053FC00E2D0C9680CF1FF3CC0F800C041608A6083
:10540C005A68D9E7BCF1000FD6D081680CF1FF3C8B
:10541C008968C0F800C08160CA605A68CCE7FFF7A1
:10542C0027FC0023CDE700BF580000209D5420002E
:10543C00B402002074010020014B0360704700BFD0
:10544C00486B2000014B0360704700BF486B200085
:10545C0040F27813C2F2000300221A605A609A607C
:10546C00704700BF00B5406800F084F900BD00BF74
:10547C00024B00B5036001F05BFA00BD486B2000E5
:10548C00024B00B5036001F053FA00BD486B2000DD
:10549C00F0B572B63F4B1A6801321A603E4A136877
:1054AC002BB15168486801380028486007DD00239B
:1054BC0062B61BB1586803689B689847F0BD012B16
:1054CC003CD0CB680020536098601368013B13609C
:1054DC00CB6823B1D3F804C04868604458600B68AB
:1054EC009868B0F1FF3F03D0013898600028DFD0F6
:1054FC00D3F80CC02848C1F804C01668002E35D06B
:10550C0047687C68A445B8BF3D4609DBF868F8B12C
:10551C00C4EB0C0CC1F804C044680546A44514DA6D
:10552C00A868002829D0CCEB040C0136C5F804C0BF
:10553C00C160A960CD6088601660B9E70023536034
:10554C0093601368013B1360C2E7C0680028DFD189
:10555C009068C4EB0C0CC1608860C1F804C00020DA
:10556C00C8609160116801311160A1E701228E6061
:10557C00CE600260416081609AE7CCEB040CC5F808
:10558C0004C08860CF60B96051601168013111604E
:10559C008EE700BF700100207801002030B472B695
:1055AC00DFF880C0DCF80410E9B10B68984218BF32
:1055BC000B462BD0DB68B3B11A689042FAD1DCF8F9
:1055CC000000184C012811D09D68002D20D0DA68FD
:1055DC0092B1EA60DA680138956020601AB15168BE
:1055EC005B68CB18536062B630BC704700226260B7
:1055FC00A2602260DA68F1E70028F4D0A1680138D3
:10560C0089682060A160CA60DA68E7E70B46D6E7D4
:10561C0008B9DA68E2E7CA68013862602060956010
:10562C00DA68DBE77801002083603B4BD1F800C0DF
:10563C001B68C0F800C05B684FF47A7CBCFBF3F3CA
:10564C0044F2402CC0F20F0CBCFBF3FC0B680021A5
:10565C0003EB5C03B3FBFCF3F0B54260C360006189
:10566C0043618161C16172B62BB962B61368104691
:10567C009B689847F0BD294C00F1100C2668002E51
:10568C0032D0676879688B42B8BF3D461ADBFA683E
:10569C004AB15B1ACCF80430516815468B421FDABC
:1056AC00436999420EDC5B1A4361A368C3F80CC0D2
:1056BC0083610023C3612368C4F808C001332360ED
:1056CC0062B6D7E7AA68CAB1CB1A01366B60C2F8CA
:1056DC000CC0C5F808C0C5618261266062B6C9E716
:1056EC00D268002AD5D1DBE701238661C66123602D
:1056FC00C4F804C0C4F808C062B6BBE7CB1A6B6030
:10570C00236882610133C761C7F808C02360C4F8FD
:10571C0004C062B6AEE700BF74010020780100201F
:10572C0070B58EB008AC06460021204600F01CF87F
:10573C000B4B31460CAA0C93684601230D94FFF7D2
:10574C0073FF204600F02AF86846FFF727FF054B49
:10575C0020466D460C9300F035F80EB070BD00BFBE
:10576C00346B2000486B200000230360436083608F
:10577C00C160704700B572B600F10C0151E8002F02
:10578C0002F1010241E80023002BF7D1002A01DDD0
:10579C0062B600BD00F0E4FBFBE700BF00B572B6DB
:1057AC0000F10C0151E8002FA2F1010241E80023A5
:1057BC00002BF7D1002A01DB62B600BD00F036F8F1
:1057CC00FBE700BF00B572B600F0DCFA00BD00BF0D
:1057DC0040F28C120023C2F20002D36013605360BB
:1057EC00936040F2A012C2F2000213605360704743
:1057FC0012F0FF0F18BF0C4B00B51FBF1B68DA6807
:10580C005A68DA60884209D003694BB100230B61F6
:10581C0050F80C3FCB68C96801F060F862B600BD67
:10582C0001230361F2E700BF880100205C492DE9E8
:10583C00F045CB68CB681A68CB68CB6802F11C06C4
:10584C009E4263D00B68012B00F08380546A002CBD
:10585C0072D0956A002D00F08180E560D2F828C0E6
:10586C00013BCCF808400B60D0F800800323136197
:10587C00B8F1000F25D0D0F804A002F12007DAF817
:10588C000430D2F820C00AF104059C452EDA5346A8
:10589C00D5F800E0D2F820C0E6451BDC836808F19F
:1058AC000108DE60536200239362C0F800808660BA
:1058BC00CB685061196810460122FFF799FFBDE8CB
:1058CC00F0850123C2F82480C2F82880036046606A
:1058DC008660EDE79C68002C56D008F10108E66064
:1058EC009E6093625462C0F80080E1E7DAF80C30F5
:1058FC0023B9CCE7DC68002CCAD02346D3F804E0EB
:10590C00D7F800C01D1DE645F4DDC1E70B687BB17F
:10591C00012B30D0D1F804C00024DCF80CE0013BA2
:10592C00C1F804E00B60CEF80840C1F80CC09BE74E
:10593C009C46C1F80CC097E7002B95D0D1F804C059
:10594C00013BDCF80CC00B60C1F804C0CCF808407B
:10595C008AE700234B608B600B6085E7002B83D0BC
:10596C00D1F808C0013BDCF808C00B60C1F808C0D6
:10597C00CCF80C5078E7D1F804C000234B608B6056
:10598C000B60C1F80CC06FE708F101085462C2F853
:10599C0028A0CAF80860C0F80080466088E700BFFD
:1059AC008C0100202DE9F045044672B6614B62482B
:1059BC00196804F11C0701311960C368C368002B16
:1059CC0064D0D0F80080B8F1000F1FD0D0F804A03C
:1059DC0004F12006DAF80410236A0AF1040599424E
:1059EC0056DD5346D5F800C0216A8C4569DC8368C6
:1059FC00DF6063620023A362036887600133036086
:105A0C004E4B18687AB9A260BDE8F0850123C4F842
:105A1C002480C4F82880036047608760474B18686F
:105A2C000AB9F0E7013212F0030FFBD145680432DA
:105A3C000F2A98BF10222B46002D76D0696802F1F0
:105A4C00100C8C4507D9914205D0DB68002B6CD02B
:105A5C0059686145F7D3891A5960C168891AC160C0
:105A6C00596871B90668012E36D09F68002F42D054
:105A7C00DD68002D4BD0FD60D968013E06608F605B
:105A8C0059681B6858185A50021DBCE7C760C5E717
:105A9C00DAF80C30002BA4D0D3F804C031681D1DEB
:105AAC008C459FDCD96800299CD00B46D3F804C0E8
:105ABC0031681D1D8C45F5DDD5F800C0216A8C457B
:105ACC0095DD996869B108F10108CF609F60A36208
:105ADC006162C0F80080A1E7016041608160596893
:105AEC00CFE7036861620133C4F828A0CAF80870D4
:105AFC000360476092E7002EC3D0D5F80CC0013E7E
:105B0C000660C0F804C0CCF808105968B9E7002E3C
:105B1C00B7D0D0F808C0013EDCF808C00660C0F869
:105B2C0008C0CCF80C105968ABE7FFF7A1F80022BD
:105B3C0069E700BF9C0100208C0100205800002068
:105B4C00F0B572B63D4BDA68DA681068DA681A6834
:105B5C00002A3DD059686FF0004CD1F804E0E645BE
:105B6C0036D0012AD3F80CE055D0D1F80CC0002463
:105B7C00013AC3F804C01A60CCF808401E682F4ADA
:105B8C00D960002E2AD057680EF104057A68DEF829
:105B9C0004103C1D914243DBFA68002A40D0D2F835
:105BAC0004C02968141D8C4523DDD4F800C0DEF830
:105BBC0004108C4522DC9A68C2F80CE0CEF8082060
:105BCC000022CEF80C201A68C3F808E001321A60E3
:105BDC00DB6801221968FFF70BFEF0BD0121CEF83E
:105BEC000860CEF80C601160C2F804E0C2F808E05E
:105BFC00EEE7D1680029D8D00A46D0E7916889B180
:105C0C000136C1F80CE0C2F808E0CEF80C20CEF852
:105C1C0008101E60DCE700225A609A601A60ADE73B
:105C2C003A46C2E71A68CEF808100132CEF80C706A
:105C3C00C7F808E01A60C3F804E0C9E78C0100203B
:105C4C0030B5114D114C2A682368012B06D962B668
:105C5C0030BF002AF8D0FFF773FFF4E772B60C4C94
:105C6C000C48FEF7ADFF0A250B48FEF7A9FF25608F
:105C7C000A48FEF7A5FF0848FEF7A2FF256000F0D2
:105C8C007DFB30BF002030BD8C0100209C0100202A
:105C9C0030000020806B20006C6A20009C6B200080
:105CAC00344BF0B5DA681C681068DA682CB9DB681C
:105CBC0001221968FFF79CFDF0BDD3F80CE05F687A
:105CCC000EF104067A68DEF804103D1D914243DBA8
:105CDC00FA68002A40D0D2F804C03168151D8C45F2
:105CEC001FDDD5F800C0DEF804108C451EDC9A6868
:105CFC001C68C2F80CE0CEF8082001340022CEF863
:105D0C000C201C60C3F808E04CB1012C1BD05C6863
:105D1C000021E2685A6091601A68013A1A60DC60EE
:105D2C00C5E7D1680029DCD00A46D4E79168A9B14F
:105D3C000134C1F80CE0C2F808E0CEF80C20CEF823
:105D4C0008101C60E0E700225C689A605A601A68D0
:105D5C00DC60013A1A60AAE73A46C2E71C68CEF842
:105D6C0008100134CEF80C70C7F808E01C60C3F8BA
:105D7C0004E0C9E78C01002000B572B6FFF790FF74
:105D8C0000BD00BF2DE9F04F434D0446EB6803689E
:105D9C00002B74D000264FF001082F46012B40D069
:105DAC006268013BD168236061608E601268C2F842
:105DBC001080EB68EB68566102F11C0C002B26D0AE
:105DCC00D7F800A0BAF1000F30D0D7F8049002F148
:105DDC00200ED9F80410136A09F1040099422EDD43
:105DEC004B460068116A88423CDCAB68C3F80CC0B7
:105DFC0053622B6896620133C5F808C02B60FFF71D
:105E0C004FFF72B62368002BC8D1BDE8F08FC7F8DE
:105E1C000CC0FFF745FF72B62368002BF5D0012BA1
:105E2C00BED16268A66066602660BFE75662966265
:105E3C00C7F80080C7F804C0C7F808C0E9E7D9F86C
:105E4C000C3023B9CCE7D9680029CAD00B46D3F85B
:105E5C0004B0DEF80010181D8B45F4DD0068116AE3
:105E6C008842C2DD996861B10AF1010AC1F80CC01F
:105E7C00C3F808C093625162C5F800A0C9E762B6C6
:105E8C00C3E72B6851620133C2F82890C9F808C0E7
:105E9C002B60C5F804C0BCE78C010020C368036903
:105EAC0010B5012B18D00369B3B12C4BDA68D96843
:105EBC0000F11C0291421CD01A68012A29D0416AB7
:105ECC00002935D0846A002C3FD0CC60D0F828C093
:105EDC00013ACCF808101A600369012B01D062B6A4
:105EEC0010BD026A6FF000439A42F8D0FFF7D8FE5B
:105EFC00F6E71A68CAB1012A10D059680024D1F803
:105F0C000CC0013AC3F804C01A60CCF80840D96040
:105F1C00E2E700225A609A601A60DDE759680022B5
:105F2C005A609A601A60D960D6E71146D960D3E7F7
:105F3C00002AD1D0D3F804C0013ADCF80CC01A60A6
:105F4C00C3F804C0CCF80810C6E7002AC4D099687E
:105F5C00013A89681A609960CC60BDE78C01002019
:105F6C003A4BF0B5DA680268002A37D0012A43D0E0
:105F7C0041684FF0000ED1F80CC0013AC0F804C0D3
:105F8C000260CCF808E0096801200861D3F80CC065
:105F9C00DD6800224A6101F11C042C4A002D1FD03F
:105FAC001668002E20D0576801F120057A68086A1F
:105FBC0007F1040E904225DA3A46DEF800C0086A72
:105FCC0084452EDC9A68D4604A6200228A621A6880
:105FDC009C6001321A60FFF763FE00E062B6F0BD10
:105FEC00D460FFF75DFEFAE74E628E62106054607B
:105FFC009460FFF755FEF2E7002241688260426030
:10600C000260C0E7FA6822B9D6E7D0680028D4D07D
:10601C000246D2F804C0286802F1040E8445F4DD6F
:10602C00CBE7906840B10136C46094608A624862E4
:10603C001E60FFF735FED2E71A68486201328F62A4
:10604C00BC601A605C60FFF72BFEC8E78C01002077
:10605C002DE9F04172B69E4BDA68DA68D96812689D
:10606C00D3F80CC002F11C018C4500F09E8019681D
:10607C00012900F0DF80546A002C00F0AE80956A94
:10608C00002D00F0EA80E560D2F828C00139CCF888
:10609C000840196091680860042111618D490868F5
:1060AC00013808609169002900F091809169012400
:1060BC000C61D2F818C0D868D86885490CF11C0559
:1060CC0070B30F68002F00F0A180D1F804800CF1A0
:1060DC002006D8F80410DCF8200008F104048842EB
:1060EC00C0F2DD80D8F80C10002900F0D880D1F86F
:1060FC0004E030680C1D86457DDDD4F800E0DCF84A
:10610C002000864500F38A8099681C68CD60CCF825
:10611C00241001340021CCF828101C609D6001E093
:10612C000C68CD60002191616949D8683CB9DB6885
:10613C00104619680122FFF75BFBBDE8F081D1F82E
:10614C000CE04F680EF104067868DEF804103D1D73
:10615C00884200F3A280F968002900F09E80D1F8F3
:10616C0004C030680D1D84454BDDD5F800C0DEF849
:10617C000400844563DC99681C68C1F80CE0CEF817
:10618C00081001340021CEF80C101C60C3F808E094
:10619C004CB1012C6FD05C680020E16859608860BC
:1061AC00196801391960DC60C1E7196889B10129E6
:1061BC006AD0D3F804C00024DCF80CE00139C3F831
:1061CC0004E01960CEF80840C3F80CC062E71C6804
:1061DC00AAE78C46C3F80CC05CE700293FF45AAF21
:1061EC00D3F804C00139DCF80CC01960C3F804C042
:1061FC00CCF808404EE7C86800283FF47EAF014653
:10620C0075E7C8680028B0D00146A8E7CCF8247020
:10621C00CCF828700C604D608D6083E7886800288E
:10622C003FD07C1CC5608D60CCF82810CCF82400C5
:10623C001C6077E700215960996019602AE788682B
:10624C00002839D00134C0F80CE0C1F808E0CEF8D1
:10625C000C10CEF808001C609AE700293FF41AAF26
:10626C00D3F808C00139DCF808C01960C3F808C0BD
:10627C00CCF80C500EE700215C68996059601968E5
:10628C00DC600139196052E7D3F804C00021596071
:10629C0099601960C3F80CC0FCE6394665E74146C5
:1062AC002BE71C68CCF824000134CCF82880C8F803
:1062BC0008501C605D6035E71C68CEF8080001349E
:1062CC00CEF80C70C7F808E01C60C3F804E05FE778
:1062DC008C0100209C010020704700BFEFF303806D
:1062EC0000F03F0001B500F035F8BDE801404FF07B
:1062FC0001034FEA03630D4941F001010C4AA2F17D
:10630C00010200B50EB42DE90F10704707DF079896
:10631C000798079800F400704FEAD010684400F119
:10632C0020008546BFF36F8F00BD704718632000B7
:10633C004163200000B540F2B41381B001AAC2F24F
:10634C00000342F8040D53F820306846984701B01A
:10635C0000BD00BF00B5054B81B053F82030009054
:10636C000BB16846984701B000BD00BF700000201B
:10637C00704700BF00B500F023F800BD46F6E030D2
:10638C0000B5C0F22000FEF71BFC46F66C20C0F2F4
:10639C002000FEF715FC40F23003C2F200030A2283
:1063AC001A604EF60C53CEF20003196840F2040248
:1063BC0089B2C0F2FA5241EA02021A6000BD00BF73
:1063CC002DE9F04172B61E4D1E4E15F8014C4FF0E2
:1063DC0000081D4F8CB1092C2AD00A2C1BD0336815
:1063EC0020460133336000F04BF833684F2B08DC48
:1063FC00013515F8014C002CEDD1FFF7BFFFBDE8BE
:10640C00F0810D2000F03CF80A2000F039F801353D
:10641C00C6F80080EDE70D2000F032F8204600F0C1
:10642C002FF83B68C6F8008001333B600135E0E78C
:10643C00204600F025F83368013508333360D8E77F
:10644C00F56B2000AC010020B001002030B50B4CE6
:10645C000546236823B1DA68013ADA60DA683AB1A2
:10646C00636823B15A682846DA601B69984730BDC7
:10647C005A68DA601B699847F2E700BFB402002043
:10648C00164B81B01B78C0B22BB3EFF31082144BB8
:10649C00D2B21A7072B649F238030321C4F208035F
:1064AC00196049F29803C4F20803186049F24403D6
:1064BC00C4F20803196841F001011960002300932C
:1064CC00009BFE2B05DC009B01330093009BFE2BF5
:1064DC00F9DD02B962B601B0704700BF6E00002052
:1064EC006C0000204378053B1D2B10D8DFE803F02F
:1064FC0011570F0F400F0F0F0F0F0F0F0F0F0F0F25
:10650C000F0F0F0F0F0F0F0F0F0F0F20226D00200B
:10651C0070470378002BFAD18378C27843EA0222C1
:10652C0049F20003C4F208031A60364B03221A60C6
:10653C000120EDE70378A12BE9D18378C27853EAE7
:10654C000222E4D1304B19681A715A7162F31F019F
:10655C0008229A712D4A196013608379C27901203F
:10656C0043EA02222A4B072A28BF07221A60CFE7E8
:10657C000378002BCBD10379427953EA0222C6D19E
:10658C008379C27953EA0222C1D18378C07843EA75
:10659C0000200128BBD11B4B04221A60B8E70378FA
:1065AC00802BB4D1C378012B1ED0022BAFD1194A4A
:1065BC00164B1A608379C279012043EA0222144BEC
:1065CC00432A28BF43221A60A2E70378212B9ED1CD
:1065DC008379C27953EA022299D182780E4B02F068
:1065EC0001021A70012093E70C49084A1160827964
:1065FC00C179184642EA0121054A122928BF122105
:10660C00116085E768000020CC020020C802002041
:10661C00D4020020D46A20006D000020186B2000EA
:10662C0070B549F23803554AC4F208031C68136864
:10663C0082B023B1002113F0040F116053D1504AE2
:10664C00136823B1002113F0010F11600BD14D4BD6
:10665C001A680AB100221A6049F23803C4F208031E
:10666C001C6002B070BD484B1A783AB9474A127890
:10667C0022B101221A702020FFF702FF49F23803E1
:10668C00C4F2080300221A6049F24403C4F208035E
:10669C001B6813F0010F31D049F25803C4F2080300
:1066AC001B6849F28001DBB26846C4F208019342D0
:1066BC0006D9D1F800C000F802C00132082AF6D180
:1066CC006846FFF70FFF88B1DFF8C4C0DCF8003074
:1066DC00002B4AD049F24403C4F208031A6842F072
:1066EC0040021A6010E0FEF771FCA8E749F244037F
:1066FC00C4F208031A6842F060021A60DFF890C016
:10670C00DCF80030002BA2D0224E3268C2B149F224
:10671C008005DCF800100023C4F20805C85C0133C6
:10672C00013A2860C818CCF80000101E18BF0120D0
:10673C001F2B8CBF002000F0010032600028EDD12F
:10674C0052B949F24403C4F208031968CCF800208A
:10675C0041F00A0119607AE749F24403C4F20803D4
:10676C001A6842F002021A6071E749F24403C4F25B
:10677C0008031A6842F048021A6068E7BC0200205D
:10678C00C0020020C40200206E0000206D0000201A
:10679C00C8020020D40200204F4B70B41D6847F291
:1067AC00F833C2F200034FF440625A6000229A6040
:1067BC00DA60EA681B6002F54062EA605A686B684E
:1067CC00002B52D047F2F83CC2F2000C1E689444E5
:1067DC00B4450CBF1A461A4604D0D26812B11168DF
:1067EC008C45FAD147F2F831C2F200010C685968B5
:1067FC007618B44208D0DB68002B35D0D3F800C033
:10680C00596861448C42F6D119461346BBB147F224
:10681C00F832C2F200025468D3F804C0A444C2F89F
:10682C0004C02A68012A2ED09C68002C39D0DE685E
:10683C00002E2DD0E660DB68013A9C602A6039B1ED
:10684C0047F2F833C2F200035B684A68D3184B6016
:10685C008546BFF36F8F5DF804CB8CF30388BDE8DE
:10686C00FF5F00BD70BC704713462A6812BB47F22D
:10687C00F831C2F200018A60CA606960A960012126
:10688C0029601146C2E700236B60AB602B60D6E732
:10689C00002AD4D0AB68013A9B682A60AB60DE60FA
:1068AC00CDE7002ACBD06B68013ADB682A606B60BD
:1068BC009C60C4E7A96847F2F83CC2F2000CC1F82E
:1068CC000CC0CCF8081001320021CCF80C102A6056
:1068DC00C5F808C09AE700BF5800002081B04DF8F9
:1068EC0004CD0FF2340C4CF0010CCDF804C05DF863
:1068FC0004CB2DE9FF5FEFF3038C4DF804CDC0F80A
:10690C0000D08D46BFF36F8F5DF804CB8CF30388FA
:10691C00BDE8FF5F62B600BD704700BF40F2D823F0
:10692C00C2F2000300221A605A609A60DA60704763
:10693C003D4B70B41D6850F8043C041F0F2B41D91B
:10694C00002240F8044C6360A260E260EA68D3184D
:10695C00EB606B6850F804CC6068002B35D01E6877
:10696C006044B0420CBF1A461A4604D0D26812B129
:10697C0011688842FAD159687618B44507D0DB689B
:10698C00002B21D01868596841188C45F7D119464D
:10699C00134693B160685A688218626028680128AF
:1069AC001DD09A68002A1FD0DE68002E31D0D66028
:1069BC00DB689A602B68013B2B6019B14A686368ED
:1069CC00D3184B6070BC704713462968B1B9A160ED
:1069DC00E1602A686C600132AC602A60D9E7002360
:1069EC006B60AB602B60E8E70028E6D06B68DB6877
:1069FC006B609A602B68013B2B60DEE7AA68002174
:106A0C00D460AA68E160A2602A68AC6001322A6096
:106A1C00BFE70028D1D0AB689B68AB60DE602B6809
:0C6A2C00013B2B60C9E700BF58000020B0
:106A3800074B10B51A6852B9064C01221A606368F0
:106A48002BB10434984754F8043F002BFAD110BDF9
:086A5800040000202C6C20005A
:106A6000554152542073656E743A20000A000000AC
:106A700053504920726561643A20000055415254D8
:106A80002072656365697665643A20004D4D553A1C
:106A90003A616C6C6F632829206661696C656421BA
:106AA0000000000050757265205669727475616C43
:106AB000206D6574686F642063616C6C656421008F
:106AC0003031323334353637383961626364656664
:106AD0000000000009024300020100A0190904009F
:106AE0000001020201000524001001042402020535
:106AF000240600010524010001070582034000402F
:106B000009040100020A00000007058302200000BA
:106B1000070504020001000012010002020000202B
:106B2000501D1C6003000000000100000000000078
:106B300000000000515420007D54200071542000BA
:106B40000000000000000000455420008D5420008B
:106B5000514C20005468726561643A3A70617373F5
:106B6000203D3E20746872656164202800000000AA
:106B700029206E6F74207265616479210000000025
:106B8000546865206C617374207468726561642058
:106B90006861732065786974656421005265626F6D
:106BA0006F74696E6720746865206D616368696ED3
:106BB00065202E2E2E000000526573756D652063D2
:106BC000616C6C656420666F7220756E737573708E
:106BD000656E646564206F626A65637421000000FD
:106BE0004D616368696E653A3A7265626F6F7428C9
:0C6BF0002900000050414E4943210A00DA
:106BFC00FFFFFFFF75422000DD4220009D44200076
:106C0C0001452000A5482000714B20005D54200058
:106C1C00DD572000E56220002969200000000000FB
:086C2C00FFFFFFFF0000000064
:040000050020411C7A
:020000040027D3
:0CFFD400FFFFFFEF000000000000200015
:00000001FF
